{
  "address": "0xb97a9da26B752cce79f76e6358B45124E339DE91",
  "abi": [
    {
      "inputs": [],
      "stateMutability": "nonpayable",
      "type": "constructor"
    },
    {
      "anonymous": false,
      "inputs": [
        {
          "indexed": true,
          "internalType": "uint256",
          "name": "id",
          "type": "uint256"
        },
        {
          "indexed": false,
          "internalType": "string",
          "name": "dataHash",
          "type": "string"
        }
      ],
      "name": "DataUploaded",
      "type": "event"
    },
    {
      "anonymous": false,
      "inputs": [
        {
          "indexed": true,
          "internalType": "uint256",
          "name": "id",
          "type": "uint256"
        },
        {
          "indexed": false,
          "internalType": "uint256",
          "name": "grantAmount",
          "type": "uint256"
        }
      ],
      "name": "FundingUnlocked",
      "type": "event"
    },
    {
      "anonymous": false,
      "inputs": [
        {
          "indexed": true,
          "internalType": "uint256",
          "name": "id",
          "type": "uint256"
        },
        {
          "indexed": false,
          "internalType": "address",
          "name": "owner",
          "type": "address"
        },
        {
          "indexed": false,
          "internalType": "string",
          "name": "metadata",
          "type": "string"
        }
      ],
      "name": "IPMinted",
      "type": "event"
    },
    {
      "anonymous": false,
      "inputs": [
        {
          "indexed": true,
          "internalType": "uint256",
          "name": "id",
          "type": "uint256"
        },
        {
          "indexed": false,
          "internalType": "string",
          "name": "name",
          "type": "string"
        },
        {
          "indexed": false,
          "internalType": "address",
          "name": "researcher",
          "type": "address"
        }
      ],
      "name": "MarketCreated",
      "type": "event"
    },
    {
      "anonymous": false,
      "inputs": [
        {
          "indexed": true,
          "internalType": "uint256",
          "name": "id",
          "type": "uint256"
        },
        {
          "indexed": false,
          "internalType": "bool",
          "name": "outcome",
          "type": "bool"
        }
      ],
      "name": "MarketResolved",
      "type": "event"
    },
    {
      "anonymous": false,
      "inputs": [
        {
          "indexed": true,
          "internalType": "uint256",
          "name": "id",
          "type": "uint256"
        },
        {
          "indexed": true,
          "internalType": "address",
          "name": "trader",
          "type": "address"
        },
        {
          "indexed": false,
          "internalType": "bool",
          "name": "isYes",
          "type": "bool"
        },
        {
          "indexed": false,
          "internalType": "bool",
          "name": "isBuy",
          "type": "bool"
        },
        {
          "indexed": false,
          "internalType": "uint256",
          "name": "tokenAmount",
          "type": "uint256"
        },
        {
          "indexed": false,
          "internalType": "uint256",
          "name": "ethCost",
          "type": "uint256"
        }
      ],
      "name": "Trade",
      "type": "event"
    },
    {
      "inputs": [],
      "name": "EXIT_TAX_PERCENT",
      "outputs": [
        {
          "internalType": "uint256",
          "name": "",
          "type": "uint256"
        }
      ],
      "stateMutability": "view",
      "type": "function"
    },
    {
      "inputs": [],
      "name": "FUNDING_THRESHOLD_TOKENS",
      "outputs": [
        {
          "internalType": "uint256",
          "name": "",
          "type": "uint256"
        }
      ],
      "stateMutability": "view",
      "type": "function"
    },
    {
      "inputs": [],
      "name": "STABILITY_DURATION",
      "outputs": [
        {
          "internalType": "uint256",
          "name": "",
          "type": "uint256"
        }
      ],
      "stateMutability": "view",
      "type": "function"
    },
    {
      "inputs": [],
      "name": "SUCCESS_GRANT_PERCENT",
      "outputs": [
        {
          "internalType": "uint256",
          "name": "",
          "type": "uint256"
        }
      ],
      "stateMutability": "view",
      "type": "function"
    },
    {
      "inputs": [],
      "name": "admin",
      "outputs": [
        {
          "internalType": "address",
          "name": "",
          "type": "address"
        }
      ],
      "stateMutability": "view",
      "type": "function"
    },
    {
      "inputs": [
        {
          "internalType": "address",
          "name": "",
          "type": "address"
        },
        {
          "internalType": "uint256",
          "name": "",
          "type": "uint256"
        },
        {
          "internalType": "bool",
          "name": "",
          "type": "bool"
        }
      ],
      "name": "balances",
      "outputs": [
        {
          "internalType": "uint256",
          "name": "",
          "type": "uint256"
        }
      ],
      "stateMutability": "view",
      "type": "function"
    },
    {
      "inputs": [
        {
          "internalType": "uint256",
          "name": "_id",
          "type": "uint256"
        },
        {
          "internalType": "bool",
          "name": "_isYes",
          "type": "bool"
        }
      ],
      "name": "buy",
      "outputs": [],
      "stateMutability": "payable",
      "type": "function"
    },
    {
      "inputs": [
        {
          "internalType": "uint256",
          "name": "_id",
          "type": "uint256"
        }
      ],
      "name": "checkFundingTrigger",
      "outputs": [],
      "stateMutability": "nonpayable",
      "type": "function"
    },
    {
      "inputs": [
        {
          "internalType": "uint256",
          "name": "_id",
          "type": "uint256"
        }
      ],
      "name": "claimWinnings",
      "outputs": [],
      "stateMutability": "nonpayable",
      "type": "function"
    },
    {
      "inputs": [
        {
          "internalType": "string",
          "name": "_name",
          "type": "string"
        },
        {
          "internalType": "address",
          "name": "_researcher",
          "type": "address"
        },
        {
          "internalType": "string",
          "name": "_auditUrl",
          "type": "string"
        }
      ],
      "name": "createProposal",
      "outputs": [],
      "stateMutability": "nonpayable",
      "type": "function"
    },
    {
      "inputs": [
        {
          "internalType": "uint256",
          "name": "_id",
          "type": "uint256"
        },
        {
          "internalType": "bool",
          "name": "_isYes",
          "type": "bool"
        }
      ],
      "name": "getPrice",
      "outputs": [
        {
          "internalType": "uint256",
          "name": "",
          "type": "uint256"
        }
      ],
      "stateMutability": "view",
      "type": "function"
    },
    {
      "inputs": [
        {
          "internalType": "uint256",
          "name": "_id",
          "type": "uint256"
        }
      ],
      "name": "mintIPNFT",
      "outputs": [],
      "stateMutability": "nonpayable",
      "type": "function"
    },
    {
      "inputs": [],
      "name": "proposalCount",
      "outputs": [
        {
          "internalType": "uint256",
          "name": "",
          "type": "uint256"
        }
      ],
      "stateMutability": "view",
      "type": "function"
    },
    {
      "inputs": [
        {
          "internalType": "uint256",
          "name": "",
          "type": "uint256"
        }
      ],
      "name": "proposals",
      "outputs": [
        {
          "internalType": "string",
          "name": "name",
          "type": "string"
        },
        {
          "internalType": "address",
          "name": "researcher",
          "type": "address"
        },
        {
          "internalType": "uint256",
          "name": "yesSupply",
          "type": "uint256"
        },
        {
          "internalType": "uint256",
          "name": "noSupply",
          "type": "uint256"
        },
        {
          "internalType": "uint256",
          "name": "ethInMarket",
          "type": "uint256"
        },
        {
          "internalType": "uint256",
          "name": "stabilityStartTime",
          "type": "uint256"
        },
        {
          "internalType": "bool",
          "name": "fundingUnlocked",
          "type": "bool"
        },
        {
          "internalType": "bool",
          "name": "isResolved",
          "type": "bool"
        },
        {
          "internalType": "bool",
          "name": "outcome",
          "type": "bool"
        },
        {
          "internalType": "string",
          "name": "dataHash",
          "type": "string"
        },
        {
          "internalType": "bool",
          "name": "ipNftMinted",
          "type": "bool"
        },
        {
          "internalType": "string",
          "name": "auditUrl",
          "type": "string"
        }
      ],
      "stateMutability": "view",
      "type": "function"
    },
    {
      "inputs": [
        {
          "internalType": "uint256",
          "name": "_id",
          "type": "uint256"
        },
        {
          "internalType": "bool",
          "name": "_isYes",
          "type": "bool"
        },
        {
          "internalType": "uint256",
          "name": "_tokenAmount",
          "type": "uint256"
        }
      ],
      "name": "sell",
      "outputs": [],
      "stateMutability": "nonpayable",
      "type": "function"
    },
    {
      "inputs": [
        {
          "internalType": "uint256",
          "name": "_id",
          "type": "uint256"
        },
        {
          "components": [
            {
              "internalType": "bytes32[]",
              "name": "merkleProof",
              "type": "bytes32[]"
            },
            {
              "internalType": "bytes32",
              "name": "data",
              "type": "bytes32"
            }
          ],
          "internalType": "struct FDCProof",
          "name": "_proof",
          "type": "tuple"
        }
      ],
      "name": "settleWithFlare",
      "outputs": [],
      "stateMutability": "nonpayable",
      "type": "function"
    },
    {
      "inputs": [
        {
          "internalType": "uint256",
          "name": "_id",
          "type": "uint256"
        },
        {
          "internalType": "bool",
          "name": "_didSucceed",
          "type": "bool"
        }
      ],
      "name": "simulateOracleDecision",
      "outputs": [],
      "stateMutability": "nonpayable",
      "type": "function"
    },
    {
      "inputs": [
        {
          "internalType": "uint256",
          "name": "_id",
          "type": "uint256"
        },
        {
          "internalType": "string",
          "name": "_ipfsHash",
          "type": "string"
        }
      ],
      "name": "uploadResearchData",
      "outputs": [],
      "stateMutability": "nonpayable",
      "type": "function"
    },
    {
      "stateMutability": "payable",
      "type": "receive"
    }
  ],
  "transactionHash": "0x5db2b2b6a9aa408d302b3f8410dc7e02a8c979aa095115d209f719afb29d16ee",
  "args": [],
  "numDeployments": 2,
  "solcInputHash": "0acab6bacd57ab653fc13a85b9daa09f",
  "bytecode": "0x6080604052348015600f57600080fd5b50600080546001600160a01b03191633179055611eb9806100316000396000f3fe60806040526004361061010d5760003560e01c80635705b61a11610095578063bcedc27911610064578063bcedc279146102e5578063d385a20d14610305578063da35c6641461031a578063e34f7fe314610330578063f851a4401461034657600080fd5b80635705b61a14610265578063677bd9ff146102855780637462c4f9146102a55780637789e56a146102c557600080fd5b80632208f743116100dc5780632208f743146101bf57806331c26b11146101df5780633681a9f2146101f257806349c0cc14146102075780634a5ecec11461022757600080fd5b8063013cf08b14610119578063016e205a1461015a57806310c09fda1461017c5780631b0324501461019f57600080fd5b3661011457005b600080fd5b34801561012557600080fd5b506101396101343660046114cf565b61037e565b6040516101519c9b9a99989796959493929190611538565b60405180910390f35b34801561016657600080fd5b5061017a6101753660046115e6565b610593565b005b34801561018857600080fd5b50610191603c81565b604051908152602001610151565b3480156101ab57600080fd5b5061017a6101ba3660046114cf565b610602565b3480156101cb57600080fd5b5061017a6101da366004611701565b610743565b61017a6101ed3660046115e6565b6107ee565b3480156101fe57600080fd5b50610191600a81565b34801561021357600080fd5b5061017a610222366004611747565b6109c4565b34801561023357600080fd5b50610191610242366004611794565b600360209081526000938452604080852082529284528284209052825290205481565b34801561027157600080fd5b506101916102803660046115e6565b610caf565b34801561029157600080fd5b5061017a6102a03660046114cf565b610d01565b3480156102b157600080fd5b5061017a6102c03660046117d6565b610e78565b3480156102d157600080fd5b5061017a6102e036600461184f565b611040565b3480156102f157600080fd5b5061017a6103003660046114cf565b61135e565b34801561031157600080fd5b50610191600581565b34801561032657600080fd5b5061019160025481565b34801561033c57600080fd5b506101916103e881565b34801561035257600080fd5b50600054610366906001600160a01b031681565b6040516001600160a01b039091168152602001610151565b60016020526000908152604090208054819061039990611891565b80601f01602080910402602001604051908101604052809291908181526020018280546103c590611891565b80156104125780601f106103e757610100808354040283529160200191610412565b820191906000526020600020905b8154815290600101906020018083116103f557829003601f168201915b50505060018401546002850154600386015460048701546005880154600689015460078a018054999a6001600160a01b03909716999598509396509194909360ff808416946101008504821694620100009004909116929161047390611891565b80601f016020809104026020016040519081016040528092919081815260200182805461049f90611891565b80156104ec5780601f106104c1576101008083540402835291602001916104ec565b820191906000526020600020905b8154815290600101906020018083116104cf57829003601f168201915b5050506008840154600985018054949560ff90921694919350915061051090611891565b80601f016020809104026020016040519081016040528092919081815260200182805461053c90611891565b80156105895780601f1061055e57610100808354040283529160200191610589565b820191906000526020600020905b81548152906001019060200180831161056c57829003601f168201915b505050505090508c565b60008281526001602052604090819020600681018054841515620100000262ffff001990911617610100179055905183907f4927fe38919783250023d27e65a3e56b6b5c3e49364e51674a41ef08d62460d9906105f590851515815260200190565b60405180910390a2505050565b6000818152600160208190526040909120908101546001600160a01b031633146106735760405162461bcd60e51b815260206004820152601b60248201527f4f6e6c7920526573656172636865722063616e206d696e74204950000000000060448201526064015b60405180910390fd5b600881015460ff16156106bc5760405162461bcd60e51b8152602060048201526011602482015270125408185b1c9958591e481b5a5b9d1959607a1b604482015260640161066a565b60088101805460ff191660011790556040517449502d4e465420666f722050726f706f73616c202360581b60208201526035810183905282907f20b4d49092d5bdda4ceb801fc70253f142dd486809e3f615fa12c0adfd58df5590339060550160408051601f198184030181529082905261073792916118cb565b60405180910390a25050565b6000828152600160208190526040909120908101546001600160a01b031633146107af5760405162461bcd60e51b815260206004820152601f60248201527f4f6e6c7920526573656172636865722063616e2075706c6f6164206461746100604482015260640161066a565b600781016107bd8382611946565b50827fc0e0b61fdf197e2d9f992779958b36d39f436794b2669aa8d1348b1583bf38f8836040516105f59190611a04565b60008281526001602052604090206006810154610100900460ff16156108485760405162461bcd60e51b815260206004820152600f60248201526e13585c9ad95d081c995cdbdb1d9959608a1b604482015260640161066a565b600034116108835760405162461bcd60e51b81526020600482015260086024820152670a6cadcc8408aa8960c31b604482015260640161066a565b600061088f8484610caf565b90506000816108a634670de0b6b3a7640000611a34565b6108b09190611a4b565b905083156108d757808360020160008282546108cc9190611a6d565b909155506108f19050565b808360030160008282546108eb9190611a6d565b90915550505b3360009081526003602090815260408083208884528252808320871515845290915281208054839290610925908490611a6d565b92505081905550348360040160008282546109409190611a6d565b90915550849050801561095857506103e88360020154115b15610970578260050154600003610970574260058401555b60408051851515815260016020820152908101829052346060820152339086907f1080a6e42ac16e1e06ceeec56bfcd11d5f64a6b48cdf10db0f6566172e7f92a09060800160405180910390a35050505050565b60008381526001602052604090206006810154610100900460ff1615610a1e5760405162461bcd60e51b815260206004820152600f60248201526e13585c9ad95d081c995cdbdb1d9959608a1b604482015260640161066a565b60018101546001600160a01b03163303610a855760405162461bcd60e51b815260206004820152602260248201527f52657365617263686572204c6f636b656420756e74696c205265736f6c75746960448201526137b760f11b606482015260840161066a565b33600090815260036020908152604080832087845282528083208615158452909152902054821115610aed5760405162461bcd60e51b81526020600482015260116024820152704e6f7420656e6f75676820746f6b656e7360781b604482015260640161066a565b6000610af98585610caf565b90506000670de0b6b3a7640000610b108386611a34565b610b1a9190611a4b565b90508260040154811115610b2f575060048201545b60006064610b3e600584611a34565b610b489190611a4b565b90506000610b568284611a80565b3360009081526003602090815260408083208c845282528083208b15158452909152812080549293508892909190610b8f908490611a80565b90915550508615610bb95785856002016000828254610bae9190611a80565b90915550610bd39050565b85856003016000828254610bcd9190611a80565b90915550505b82856004016000828254610be79190611a80565b909155505060018501546040516001600160a01b039091169083156108fc029084906000818181858888f19350505050158015610c28573d6000803e3d6000fd5b50604051339082156108fc029083906000818181858888f19350505050158015610c56573d6000803e3d6000fd5b506040805188151581526000602082015290810187905260608101829052339089907f1080a6e42ac16e1e06ceeec56bfcd11d5f64a6b48cdf10db0f6566172e7f92a09060800160405180910390a35050505050505050565b60008281526001602052604081208183610ccd578160030154610cd3565b81600201545b9050610ce581655af3107a4000611a34565b610cf69066038d7ea4c68000611a6d565b925050505b92915050565b60008181526001602052604090206006810154610100900460ff16610d5e5760405162461bcd60e51b815260206004820152601360248201527213585c9ad95d081b9bdd081c995cdbdb1d9959606a1b604482015260640161066a565b6006810154600090819062010000900460ff161515600103610db05750503360009081526003602090815260408083208584528252808320600184529091528120805460028401549290915590610ddf565b505033600090815260036020818152604080842086855282528084208480529091528220805491840154929055905b60008211610e235760405162461bcd60e51b81526020600482015260116024820152704e6f2077696e6e696e6720746f6b656e7360781b604482015260640161066a565b600081838560040154610e369190611a34565b610e409190611a4b565b604051909150339082156108fc029083906000818181858888f19350505050158015610e70573d6000803e3d6000fd5b505050505050565b60408051610180810182528481526001600160a01b0384166020808301919091526000828401819052606083018190526080830181905260a0830181905260c0830181905260e0830181905261010083018190528351808301855281815261012084015261014083018190526101608301859052600254815260019091529190912081518190610f089082611946565b5060208201516001820180546001600160a01b0319166001600160a01b0390921691909117905560408201516002820155606082015160038201556080820151600482015560a0820151600582015560c082015160068201805460e08501516101008087015161ffff1990931694151561ff001916949094179015159093029290921762ff0000191662010000921515929092029190911790556101208201516007820190610fb79082611946565b5061014082015160088201805460ff19169115159190911790556101608201516009820190610fe69082611946565b509050506002547f6bfe994aa671108bc4fcb31c2a97ab16ddb967720121010032b2e834bf5eacf6848460405161101e929190611a93565b60405180910390a26002805490600061103683611abd565b9190505550505050565b60405163413b07e560e11b8152602060048201526006602482015265233231a43ab160d11b604482015260009073ad67fe66660fb8dfe9d6b1b4240d8650e30f6019906382760fca90606401602060405180830381865afa1580156110a9573d6000803e3d6000fd5b505050506040513d601f19601f820116820180604052508101906110cd9190611ad6565b90506001600160a01b0381166111185760405162461bcd60e51b815260206004820152601060248201526f119918d21d58881b9bdd08199bdd5b9960821b604482015260640161066a565b604051630bad424360e11b81526000906001600160a01b0383169063175a848690611147908690600401611af3565b602060405180830381865afa158015611164573d6000803e3d6000fd5b505050506040513d601f19601f820116820180604052508101906111889190611b7b565b9050806111cd5760405162461bcd60e51b815260206004820152601360248201527224b73b30b634b210233630b93290283937b7b360691b604482015260640161066a565b600083602001356040516020016111e691815260200190565b6040516020818303038152906040528060200190518101906112089190611d3e565b6000868152600160205260409020600681015491925090610100900460ff16156112745760405162461bcd60e51b815260206004820152601760248201527f4d61726b657420616c7265616479207265736f6c766564000000000000000000604482015260640161066a565b806009016040516112859190611e0e565b604051809103902082608001516000015180519060200120146112d95760405162461bcd60e51b815260206004820152600c60248201526b0aaa49840dad2e6dac2e8c6d60a31b604482015260640161066a565b60008260a00151600001518060200190518101906112f79190611b7b565b600683018054821515620100000262ffff00199091161761010017905560405190915087907f4927fe38919783250023d27e65a3e56b6b5c3e49364e51674a41ef08d62460d99061134d90841515815260200190565b60405180910390a250505050505050565b6000818152600160205260409020600681015460ff16156113b25760405162461bcd60e51b815260206004820152600e60248201526d105b1c9958591e48199d5b99195960921b604482015260640161066a565b80600501546000036113fa5760405162461bcd60e51b8152602060048201526011602482015270151a1c995cda1bdb19081b9bdd081b595d607a1b604482015260640161066a565b603c816005015461140b9190611a6d565b42106114cb5760068101805460ff19166001179055600481015460009060649061143790600a90611a34565b6114419190611a4b565b9050808260040160008282546114579190611a80565b909155505060018201546040516001600160a01b039091169082156108fc029083906000818181858888f19350505050158015611498573d6000803e3d6000fd5b50827f65b7f2e6b34c05eebe85555530b98b837f65db9766f96841c2177fb63988ae37826040516105f591815260200190565b5050565b6000602082840312156114e157600080fd5b5035919050565b60005b838110156115035781810151838201526020016114eb565b50506000910152565b600081518084526115248160208601602086016114e8565b601f01601f19169290920160200192915050565b6101808152600061154d61018083018f61150c565b6001600160a01b038e166020840152604083018d9052606083018c9052608083018b905260a083018a905288151560c084015287151560e08401528615156101008401528281036101208401526115a4818761150c565b85151561014085015290508281036101608401526115c2818561150c565b9f9e505050505050505050505050505050565b80151581146115e357600080fd5b50565b600080604083850312156115f957600080fd5b82359150602083013561160b816115d5565b809150509250929050565b634e487b7160e01b600052604160045260246000fd5b60405160c081016001600160401b038111828210171561164e5761164e611616565b60405290565b604051601f8201601f191681016001600160401b038111828210171561167c5761167c611616565b604052919050565b60006001600160401b0382111561169d5761169d611616565b50601f01601f191660200190565b600082601f8301126116bc57600080fd5b81356116cf6116ca82611684565b611654565b8181528460208386010111156116e457600080fd5b816020850160208301376000918101602001919091529392505050565b6000806040838503121561171457600080fd5b8235915060208301356001600160401b0381111561173157600080fd5b61173d858286016116ab565b9150509250929050565b60008060006060848603121561175c57600080fd5b83359250602084013561176e816115d5565b929592945050506040919091013590565b6001600160a01b03811681146115e357600080fd5b6000806000606084860312156117a957600080fd5b83356117b48161177f565b92506020840135915060408401356117cb816115d5565b809150509250925092565b6000806000606084860312156117eb57600080fd5b83356001600160401b0381111561180157600080fd5b61180d868287016116ab565b935050602084013561181e8161177f565b915060408401356001600160401b0381111561183957600080fd5b611845868287016116ab565b9150509250925092565b6000806040838503121561186257600080fd5b8235915060208301356001600160401b0381111561187f57600080fd5b83016040818603121561160b57600080fd5b600181811c908216806118a557607f821691505b6020821081036118c557634e487b7160e01b600052602260045260246000fd5b50919050565b6001600160a01b03831681526040602082018190526000906118ef9083018461150c565b949350505050565b601f82111561194157806000526020600020601f840160051c8101602085101561191e5750805b601f840160051c820191505b8181101561193e576000815560010161192a565b50505b505050565b81516001600160401b0381111561195f5761195f611616565b6119738161196d8454611891565b846118f7565b6020601f8211600181146119a7576000831561198f5750848201515b600019600385901b1c1916600184901b17845561193e565b600084815260208120601f198516915b828110156119d757878501518255602094850194600190920191016119b7565b50848210156119f55786840151600019600387901b60f8161c191681555b50505050600190811b01905550565b602081526000611a17602083018461150c565b9392505050565b634e487b7160e01b600052601160045260246000fd5b8082028115828204841417610cfb57610cfb611a1e565b600082611a6857634e487b7160e01b600052601260045260246000fd5b500490565b80820180821115610cfb57610cfb611a1e565b81810381811115610cfb57610cfb611a1e565b604081526000611aa6604083018561150c565b905060018060a01b03831660208301529392505050565b600060018201611acf57611acf611a1e565b5060010190565b600060208284031215611ae857600080fd5b8151611a178161177f565b6020815260008235601e19843603018112611b0d57600080fd5b83016020810190356001600160401b03811115611b2957600080fd5b8060051b803603831315611b3c57600080fd5b60406020860152606085018290526001600160fb1b03821115611b5e57600080fd5b808360808701376020959095013560408501525050500160800190565b600060208284031215611b8d57600080fd5b8151611a17816115d5565b80516001600160401b0381168114611baf57600080fd5b919050565b6000611bc26116ca84611684565b9050828152838383011115611bd657600080fd5b611a178360208301846114e8565b600082601f830112611bf557600080fd5b611a1783835160208501611bb4565b600060608284031215611c1657600080fd5b604051606081016001600160401b0381118282101715611c3857611c38611616565b806040525080915082516001600160401b03811115611c5657600080fd5b611c6285828601611be4565b82525060208301516001600160401b03811115611c7e57600080fd5b611c8a85828601611be4565b60208301525060408301516001600160401b03811115611ca957600080fd5b611cb585828601611be4565b6040830152505092915050565b600060208284031215611cd457600080fd5b604051602081016001600160401b0381118282101715611cf657611cf6611616565b806040525080915082516001600160401b03811115611d1457600080fd5b8301601f81018513611d2557600080fd5b611d3485825160208401611bb4565b8252505092915050565b600060208284031215611d5057600080fd5b81516001600160401b03811115611d6657600080fd5b820160c08185031215611d7857600080fd5b611d8061162c565b8151815260208083015190820152611d9a60408301611b98565b6040820152611dab60608301611b98565b606082015260808201516001600160401b03811115611dc957600080fd5b611dd586828501611c04565b60808301525060a08201516001600160401b03811115611df457600080fd5b611e0086828501611cc2565b60a083015250949350505050565b6000808354611e1c81611891565b600182168015611e335760018114611e4857611e78565b60ff1983168652811515820286019350611e78565b86600052602060002060005b83811015611e7057815488820152600190910190602001611e54565b505081860193505b50919594505050505056fea2646970667358221220bd4023667d30a64beaa31fbfe92ac86debb4596dce823730fb6b1e6d65599bdf64736f6c634300081e0033",
  "devdoc": {
    "kind": "dev",
    "methods": {
      "settleWithFlare(uint256,(bytes32[],bytes32))": {
        "details": "Checks Merkle Proof and matches URL"
      }
    },
    "version": 1
  },
  "userdoc": {
    "kind": "user",
    "methods": {
      "settleWithFlare(uint256,(bytes32[],bytes32))": {
        "notice": "SETTLE WITH REAL FDC PROOF"
      }
    },
    "version": 1
  },
  "storageLayout": {
    "storage": [
      {
        "astId": 52,
        "contract": "contracts/HelixMarket.sol:HelixMarket",
        "label": "admin",
        "offset": 0,
        "slot": "0",
        "type": "t_address"
      },
      {
        "astId": 107,
        "contract": "contracts/HelixMarket.sol:HelixMarket",
        "label": "proposals",
        "offset": 0,
        "slot": "1",
        "type": "t_mapping(t_uint256,t_struct(Proposal)102_storage)"
      },
      {
        "astId": 109,
        "contract": "contracts/HelixMarket.sol:HelixMarket",
        "label": "proposalCount",
        "offset": 0,
        "slot": "2",
        "type": "t_uint256"
      },
      {
        "astId": 117,
        "contract": "contracts/HelixMarket.sol:HelixMarket",
        "label": "balances",
        "offset": 0,
        "slot": "3",
        "type": "t_mapping(t_address,t_mapping(t_uint256,t_mapping(t_bool,t_uint256)))"
      }
    ],
    "types": {
      "t_address": {
        "encoding": "inplace",
        "label": "address",
        "numberOfBytes": "20"
      },
      "t_bool": {
        "encoding": "inplace",
        "label": "bool",
        "numberOfBytes": "1"
      },
      "t_mapping(t_address,t_mapping(t_uint256,t_mapping(t_bool,t_uint256)))": {
        "encoding": "mapping",
        "key": "t_address",
        "label": "mapping(address => mapping(uint256 => mapping(bool => uint256)))",
        "numberOfBytes": "32",
        "value": "t_mapping(t_uint256,t_mapping(t_bool,t_uint256))"
      },
      "t_mapping(t_bool,t_uint256)": {
        "encoding": "mapping",
        "key": "t_bool",
        "label": "mapping(bool => uint256)",
        "numberOfBytes": "32",
        "value": "t_uint256"
      },
      "t_mapping(t_uint256,t_mapping(t_bool,t_uint256))": {
        "encoding": "mapping",
        "key": "t_uint256",
        "label": "mapping(uint256 => mapping(bool => uint256))",
        "numberOfBytes": "32",
        "value": "t_mapping(t_bool,t_uint256)"
      },
      "t_mapping(t_uint256,t_struct(Proposal)102_storage)": {
        "encoding": "mapping",
        "key": "t_uint256",
        "label": "mapping(uint256 => struct HelixMarket.Proposal)",
        "numberOfBytes": "32",
        "value": "t_struct(Proposal)102_storage"
      },
      "t_string_storage": {
        "encoding": "bytes",
        "label": "string",
        "numberOfBytes": "32"
      },
      "t_struct(Proposal)102_storage": {
        "encoding": "inplace",
        "label": "struct HelixMarket.Proposal",
        "members": [
          {
            "astId": 79,
            "contract": "contracts/HelixMarket.sol:HelixMarket",
            "label": "name",
            "offset": 0,
            "slot": "0",
            "type": "t_string_storage"
          },
          {
            "astId": 81,
            "contract": "contracts/HelixMarket.sol:HelixMarket",
            "label": "researcher",
            "offset": 0,
            "slot": "1",
            "type": "t_address"
          },
          {
            "astId": 83,
            "contract": "contracts/HelixMarket.sol:HelixMarket",
            "label": "yesSupply",
            "offset": 0,
            "slot": "2",
            "type": "t_uint256"
          },
          {
            "astId": 85,
            "contract": "contracts/HelixMarket.sol:HelixMarket",
            "label": "noSupply",
            "offset": 0,
            "slot": "3",
            "type": "t_uint256"
          },
          {
            "astId": 87,
            "contract": "contracts/HelixMarket.sol:HelixMarket",
            "label": "ethInMarket",
            "offset": 0,
            "slot": "4",
            "type": "t_uint256"
          },
          {
            "astId": 89,
            "contract": "contracts/HelixMarket.sol:HelixMarket",
            "label": "stabilityStartTime",
            "offset": 0,
            "slot": "5",
            "type": "t_uint256"
          },
          {
            "astId": 91,
            "contract": "contracts/HelixMarket.sol:HelixMarket",
            "label": "fundingUnlocked",
            "offset": 0,
            "slot": "6",
            "type": "t_bool"
          },
          {
            "astId": 93,
            "contract": "contracts/HelixMarket.sol:HelixMarket",
            "label": "isResolved",
            "offset": 1,
            "slot": "6",
            "type": "t_bool"
          },
          {
            "astId": 95,
            "contract": "contracts/HelixMarket.sol:HelixMarket",
            "label": "outcome",
            "offset": 2,
            "slot": "6",
            "type": "t_bool"
          },
          {
            "astId": 97,
            "contract": "contracts/HelixMarket.sol:HelixMarket",
            "label": "dataHash",
            "offset": 0,
            "slot": "7",
            "type": "t_string_storage"
          },
          {
            "astId": 99,
            "contract": "contracts/HelixMarket.sol:HelixMarket",
            "label": "ipNftMinted",
            "offset": 0,
            "slot": "8",
            "type": "t_bool"
          },
          {
            "astId": 101,
            "contract": "contracts/HelixMarket.sol:HelixMarket",
            "label": "auditUrl",
            "offset": 0,
            "slot": "9",
            "type": "t_string_storage"
          }
        ],
        "numberOfBytes": "320"
      },
      "t_uint256": {
        "encoding": "inplace",
        "label": "uint256",
        "numberOfBytes": "32"
      }
    }
  }
}